{
  "_format": "hh-sol-artifact-1",
  "contractName": "FlashLoan",
  "sourceName": "contracts/FlashLoan.sol",
  "abi": [
    {
      "inputs": [
        {
          "internalType": "address",
          "name": "_addressProvider",
          "type": "address"
        }
      ],
      "stateMutability": "nonpayable",
      "type": "constructor"
    },
    {
      "inputs": [],
      "name": "ADDRESSES_PROVIDER",
      "outputs": [
        {
          "internalType": "contract IPoolAddressesProvider",
          "name": "",
          "type": "address"
        }
      ],
      "stateMutability": "view",
      "type": "function"
    },
    {
      "inputs": [],
      "name": "POOL",
      "outputs": [
        {
          "internalType": "contract IPool",
          "name": "",
          "type": "address"
        }
      ],
      "stateMutability": "view",
      "type": "function"
    },
    {
      "inputs": [
        {
          "internalType": "address",
          "name": "asset",
          "type": "address"
        },
        {
          "internalType": "uint256",
          "name": "amount",
          "type": "uint256"
        },
        {
          "internalType": "uint256",
          "name": "premium",
          "type": "uint256"
        },
        {
          "internalType": "address",
          "name": "initiator",
          "type": "address"
        },
        {
          "internalType": "bytes",
          "name": "params",
          "type": "bytes"
        }
      ],
      "name": "executeOperation",
      "outputs": [
        {
          "internalType": "bool",
          "name": "",
          "type": "bool"
        }
      ],
      "stateMutability": "nonpayable",
      "type": "function"
    },
    {
      "inputs": [
        {
          "internalType": "address",
          "name": "_tokenAddress",
          "type": "address"
        }
      ],
      "name": "getBalance",
      "outputs": [
        {
          "internalType": "uint256",
          "name": "",
          "type": "uint256"
        }
      ],
      "stateMutability": "view",
      "type": "function"
    },
    {
      "inputs": [
        {
          "internalType": "address",
          "name": "_token",
          "type": "address"
        },
        {
          "internalType": "uint256",
          "name": "_amount",
          "type": "uint256"
        }
      ],
      "name": "requestFlashLoan",
      "outputs": [],
      "stateMutability": "nonpayable",
      "type": "function"
    },
    {
      "inputs": [
        {
          "internalType": "address",
          "name": "_tokenAddress",
          "type": "address"
        }
      ],
      "name": "withdraw",
      "outputs": [],
      "stateMutability": "nonpayable",
      "type": "function"
    },
    {
      "inputs": [],
      "name": "withdrawEth",
      "outputs": [],
      "stateMutability": "nonpayable",
      "type": "function"
    },
    {
      "stateMutability": "payable",
      "type": "receive"
    }
  ],
  "bytecode": "0x60c06040523480156200001157600080fd5b5060405162000f2f38038062000f2f8339818101604052810190620000379190620001c3565b808073ffffffffffffffffffffffffffffffffffffffff1660808173ffffffffffffffffffffffffffffffffffffffff16815250508073ffffffffffffffffffffffffffffffffffffffff1663026b1d5f6040518163ffffffff1660e01b8152600401602060405180830381865afa158015620000b8573d6000803e3d6000fd5b505050506040513d601f19601f82011682018060405250810190620000de9190620001c3565b73ffffffffffffffffffffffffffffffffffffffff1660a08173ffffffffffffffffffffffffffffffffffffffff168152505050336000806101000a81548173ffffffffffffffffffffffffffffffffffffffff021916908373ffffffffffffffffffffffffffffffffffffffff16021790555050620001f5565b600080fd5b600073ffffffffffffffffffffffffffffffffffffffff82169050919050565b60006200018b826200015e565b9050919050565b6200019d816200017e565b8114620001a957600080fd5b50565b600081519050620001bd8162000192565b92915050565b600060208284031215620001dc57620001db62000159565b5b6000620001ec84828501620001ac565b91505092915050565b60805160a051610d06620002296000396000818161020c0152818161042d015261056d015260006101bb0152610d066000f3fe6080604052600436106100745760003560e01c80637535d2461161004e5780637535d24614610111578063a0ef91df1461013c578063d54ba95414610153578063f8b2cb4f1461017c5761007b565b80630542975c146100805780631b11d0ff146100ab57806351cff8d9146100e85761007b565b3661007b57005b600080fd5b34801561008c57600080fd5b506100956101b9565b6040516100a29190610709565b60405180910390f35b3480156100b757600080fd5b506100d260048036038101906100cd9190610807565b6101dd565b6040516100df91906108bc565b60405180910390f35b3480156100f457600080fd5b5061010f600480360381019061010a91906108d7565b61029c565b005b34801561011d57600080fd5b5061012661042b565b6040516101339190610925565b60405180910390f35b34801561014857600080fd5b5061015161044f565b005b34801561015f57600080fd5b5061017a60048036038101906101759190610940565b610546565b005b34801561018857600080fd5b506101a3600480360381019061019e91906108d7565b610607565b6040516101b0919061098f565b60405180910390f35b7f000000000000000000000000000000000000000000000000000000000000000081565b60008085876101ec91906109d9565b90508773ffffffffffffffffffffffffffffffffffffffff1663095ea7b37f0000000000000000000000000000000000000000000000000000000000000000836040518363ffffffff1660e01b8152600401610249929190610a3e565b6020604051808303816000875af1158015610268573d6000803e3d6000fd5b505050506040513d601f19601f8201168201806040525081019061028c9190610a93565b5060019150509695505050505050565b60008054906101000a900473ffffffffffffffffffffffffffffffffffffffff1673ffffffffffffffffffffffffffffffffffffffff163373ffffffffffffffffffffffffffffffffffffffff161461032a576040517f08c379a000000000000000000000000000000000000000000000000000000000815260040161032190610b43565b60405180910390fd5b60008190508073ffffffffffffffffffffffffffffffffffffffff1663a9059cbb338373ffffffffffffffffffffffffffffffffffffffff166370a08231306040518263ffffffff1660e01b81526004016103859190610b63565b602060405180830381865afa1580156103a2573d6000803e3d6000fd5b505050506040513d601f19601f820116820180604052508101906103c69190610b93565b6040518363ffffffff1660e01b81526004016103e3929190610a3e565b6020604051808303816000875af1158015610402573d6000803e3d6000fd5b505050506040513d601f19601f820116820180604052508101906104269190610a93565b505050565b7f000000000000000000000000000000000000000000000000000000000000000081565b60008054906101000a900473ffffffffffffffffffffffffffffffffffffffff1673ffffffffffffffffffffffffffffffffffffffff163373ffffffffffffffffffffffffffffffffffffffff16146104dd576040517f08c379a00000000000000000000000000000000000000000000000000000000081526004016104d490610b43565b60405180910390fd5b60008054906101000a900473ffffffffffffffffffffffffffffffffffffffff1673ffffffffffffffffffffffffffffffffffffffff166108fc479081150290604051600060405180830381858888f19350505050158015610543573d6000803e3d6000fd5b50565b600030905060008390506000839050600060405180602001604052806000815250905060007f000000000000000000000000000000000000000000000000000000000000000073ffffffffffffffffffffffffffffffffffffffff166342b0b77c86868686866040518663ffffffff1660e01b81526004016105cc959493929190610c76565b600060405180830381600087803b1580156105e657600080fd5b505af11580156105fa573d6000803e3d6000fd5b5050505050505050505050565b60008173ffffffffffffffffffffffffffffffffffffffff166370a08231306040518263ffffffff1660e01b81526004016106429190610b63565b602060405180830381865afa15801561065f573d6000803e3d6000fd5b505050506040513d601f19601f820116820180604052508101906106839190610b93565b9050919050565b600073ffffffffffffffffffffffffffffffffffffffff82169050919050565b6000819050919050565b60006106cf6106ca6106c58461068a565b6106aa565b61068a565b9050919050565b60006106e1826106b4565b9050919050565b60006106f3826106d6565b9050919050565b610703816106e8565b82525050565b600060208201905061071e60008301846106fa565b92915050565b600080fd5b600080fd5b60006107398261068a565b9050919050565b6107498161072e565b811461075457600080fd5b50565b60008135905061076681610740565b92915050565b6000819050919050565b61077f8161076c565b811461078a57600080fd5b50565b60008135905061079c81610776565b92915050565b600080fd5b600080fd5b600080fd5b60008083601f8401126107c7576107c66107a2565b5b8235905067ffffffffffffffff8111156107e4576107e36107a7565b5b602083019150836001820283011115610800576107ff6107ac565b5b9250929050565b60008060008060008060a0878903121561082457610823610724565b5b600061083289828a01610757565b965050602061084389828a0161078d565b955050604061085489828a0161078d565b945050606061086589828a01610757565b935050608087013567ffffffffffffffff81111561088657610885610729565b5b61089289828a016107b1565b92509250509295509295509295565b60008115159050919050565b6108b6816108a1565b82525050565b60006020820190506108d160008301846108ad565b92915050565b6000602082840312156108ed576108ec610724565b5b60006108fb84828501610757565b91505092915050565b600061090f826106d6565b9050919050565b61091f81610904565b82525050565b600060208201905061093a6000830184610916565b92915050565b6000806040838503121561095757610956610724565b5b600061096585828601610757565b92505060206109768582860161078d565b9150509250929050565b6109898161076c565b82525050565b60006020820190506109a46000830184610980565b92915050565b7f4e487b7100000000000000000000000000000000000000000000000000000000600052601160045260246000fd5b60006109e48261076c565b91506109ef8361076c565b9250827fffffffffffffffffffffffffffffffffffffffffffffffffffffffffffffffff03821115610a2457610a236109aa565b5b828201905092915050565b610a388161072e565b82525050565b6000604082019050610a536000830185610a2f565b610a606020830184610980565b9392505050565b610a70816108a1565b8114610a7b57600080fd5b50565b600081519050610a8d81610a67565b92915050565b600060208284031215610aa957610aa8610724565b5b6000610ab784828501610a7e565b91505092915050565b600082825260208201905092915050565b7f4f6e6c792074686520636f6e7472616374206f776e65722063616e2063616c6c60008201527f20746869732066756e6374696f6e000000000000000000000000000000000000602082015250565b6000610b2d602e83610ac0565b9150610b3882610ad1565b604082019050919050565b60006020820190508181036000830152610b5c81610b20565b9050919050565b6000602082019050610b786000830184610a2f565b92915050565b600081519050610b8d81610776565b92915050565b600060208284031215610ba957610ba8610724565b5b6000610bb784828501610b7e565b91505092915050565b600081519050919050565b600082825260208201905092915050565b60005b83811015610bfa578082015181840152602081019050610bdf565b83811115610c09576000848401525b50505050565b6000601f19601f8301169050919050565b6000610c2b82610bc0565b610c358185610bcb565b9350610c45818560208601610bdc565b610c4e81610c0f565b840191505092915050565b600061ffff82169050919050565b610c7081610c59565b82525050565b600060a082019050610c8b6000830188610a2f565b610c986020830187610a2f565b610ca56040830186610980565b8181036060830152610cb78185610c20565b9050610cc66080830184610c67565b969550505050505056fea264697066735822122028d29df3e035ff897c3682310a53f0d03c316847c5b000272ac6f6b1cad0621a64736f6c634300080a0033",
  "linkReferences": {},
  "deployedLinkReferences": {}
}